{
  "contractName": "TestMusheeToken",
  "abi": [
    {
      "inputs": [],
      "stateMutability": "nonpayable",
      "type": "constructor"
    },
    {
      "anonymous": false,
      "inputs": [
        {
          "indexed": true,
          "internalType": "address",
          "name": "owner",
          "type": "address"
        },
        {
          "indexed": true,
          "internalType": "address",
          "name": "spender",
          "type": "address"
        },
        {
          "indexed": false,
          "internalType": "uint256",
          "name": "value",
          "type": "uint256"
        }
      ],
      "name": "Approval",
      "type": "event"
    },
    {
      "anonymous": false,
      "inputs": [
        {
          "indexed": true,
          "internalType": "address",
          "name": "previousOwner",
          "type": "address"
        },
        {
          "indexed": true,
          "internalType": "address",
          "name": "newOwner",
          "type": "address"
        }
      ],
      "name": "OwnershipTransferred",
      "type": "event"
    },
    {
      "anonymous": false,
      "inputs": [
        {
          "indexed": true,
          "internalType": "address",
          "name": "from",
          "type": "address"
        },
        {
          "indexed": true,
          "internalType": "address",
          "name": "to",
          "type": "address"
        },
        {
          "indexed": false,
          "internalType": "uint256",
          "name": "value",
          "type": "uint256"
        }
      ],
      "name": "Transfer",
      "type": "event"
    },
    {
      "inputs": [],
      "name": "owner",
      "outputs": [
        {
          "internalType": "address",
          "name": "",
          "type": "address"
        }
      ],
      "stateMutability": "view",
      "type": "function"
    },
    {
      "inputs": [],
      "name": "renounceOwnership",
      "outputs": [],
      "stateMutability": "nonpayable",
      "type": "function"
    },
    {
      "inputs": [
        {
          "internalType": "address",
          "name": "newOwner",
          "type": "address"
        }
      ],
      "name": "transferOwnership",
      "outputs": [],
      "stateMutability": "nonpayable",
      "type": "function"
    },
    {
      "inputs": [],
      "name": "name",
      "outputs": [
        {
          "internalType": "string",
          "name": "",
          "type": "string"
        }
      ],
      "stateMutability": "view",
      "type": "function"
    },
    {
      "inputs": [],
      "name": "symbol",
      "outputs": [
        {
          "internalType": "string",
          "name": "",
          "type": "string"
        }
      ],
      "stateMutability": "view",
      "type": "function"
    },
    {
      "inputs": [],
      "name": "decimals",
      "outputs": [
        {
          "internalType": "uint8",
          "name": "",
          "type": "uint8"
        }
      ],
      "stateMutability": "view",
      "type": "function"
    },
    {
      "inputs": [],
      "name": "totalSupply",
      "outputs": [
        {
          "internalType": "uint256",
          "name": "",
          "type": "uint256"
        }
      ],
      "stateMutability": "view",
      "type": "function"
    },
    {
      "inputs": [
        {
          "internalType": "address",
          "name": "account",
          "type": "address"
        }
      ],
      "name": "balanceOf",
      "outputs": [
        {
          "internalType": "uint256",
          "name": "",
          "type": "uint256"
        }
      ],
      "stateMutability": "view",
      "type": "function"
    },
    {
      "inputs": [
        {
          "internalType": "address",
          "name": "recipient",
          "type": "address"
        },
        {
          "internalType": "uint256",
          "name": "amount",
          "type": "uint256"
        }
      ],
      "name": "transfer",
      "outputs": [
        {
          "internalType": "bool",
          "name": "",
          "type": "bool"
        }
      ],
      "stateMutability": "nonpayable",
      "type": "function"
    },
    {
      "inputs": [
        {
          "internalType": "address",
          "name": "owner",
          "type": "address"
        },
        {
          "internalType": "address",
          "name": "spender",
          "type": "address"
        }
      ],
      "name": "allowance",
      "outputs": [
        {
          "internalType": "uint256",
          "name": "",
          "type": "uint256"
        }
      ],
      "stateMutability": "view",
      "type": "function"
    },
    {
      "inputs": [
        {
          "internalType": "address",
          "name": "spender",
          "type": "address"
        },
        {
          "internalType": "uint256",
          "name": "amount",
          "type": "uint256"
        }
      ],
      "name": "approve",
      "outputs": [
        {
          "internalType": "bool",
          "name": "",
          "type": "bool"
        }
      ],
      "stateMutability": "nonpayable",
      "type": "function"
    },
    {
      "inputs": [
        {
          "internalType": "address",
          "name": "sender",
          "type": "address"
        },
        {
          "internalType": "address",
          "name": "recipient",
          "type": "address"
        },
        {
          "internalType": "uint256",
          "name": "amount",
          "type": "uint256"
        }
      ],
      "name": "transferFrom",
      "outputs": [
        {
          "internalType": "bool",
          "name": "",
          "type": "bool"
        }
      ],
      "stateMutability": "nonpayable",
      "type": "function"
    }
  ],
  "bytecode": "0x60c0604052600a608081905269546573744d757368656560b01b60a09081526200002d916001919062000131565b50604080518082019091526004808252630e89aa6960e31b60209092019182526200005b9160029162000131565b506003805460ff1916601217908190556200007b9060ff16600a62000224565b6200008a906210c8e062000319565b6004553480156200009a57600080fd5b50620000af620000a9620000dd565b620000e1565b600580546001600160a01b03191633908117909155600454600091825260066020526040909120556200038e565b3390565b600080546001600160a01b038381166001600160a01b0319831681178455604051919092169283917f8be0079c531659141344cd1fd0a4f28419497f9722a3daafe3b4186f6b6457e09190a35050565b8280546200013f906200033b565b90600052602060002090601f016020900481019282620001635760008555620001ae565b82601f106200017e57805160ff1916838001178555620001ae565b82800160010185558215620001ae579182015b82811115620001ae57825182559160200191906001019062000191565b50620001bc929150620001c0565b5090565b5b80821115620001bc5760008155600101620001c1565b80825b6001808611620001eb57506200021b565b81870482111562000200576200020062000378565b808616156200020e57918102915b9490941c938002620001da565b94509492505050565b60006200023560001984846200023c565b9392505050565b6000826200024d5750600162000235565b816200025c5750600062000235565b81600181146200027557600281146200028057620002b4565b600191505062000235565b60ff84111562000294576200029462000378565b6001841b915084821115620002ad57620002ad62000378565b5062000235565b5060208310610133831016604e8410600b8410161715620002ec575081810a83811115620002e657620002e662000378565b62000235565b620002fb8484846001620001d7565b80860482111562000310576200031062000378565b02949350505050565b600081600019048311821515161562000336576200033662000378565b500290565b6002810460018216806200035057607f821691505b602082108114156200037257634e487b7160e01b600052602260045260246000fd5b50919050565b634e487b7160e01b600052601160045260246000fd5b6109f7806200039e6000396000f3fe608060405234801561001057600080fd5b50600436106100b45760003560e01c8063715018a611610071578063715018a6146101475780638da5cb5b1461015157806395d89b4114610166578063a9059cbb1461016e578063dd62ed3e14610181578063f2fde38b14610194576100b4565b806306fdde03146100b9578063095ea7b3146100d757806318160ddd146100f757806323b872dd1461010c578063313ce5671461011f57806370a0823114610134575b600080fd5b6100c16101a7565b6040516100ce9190610709565b60405180910390f35b6100ea6100e53660046106c1565b610239565b6040516100ce91906106fe565b6100ff61024f565b6040516100ce919061092a565b6100ea61011a366004610686565b610255565b6101276102a7565b6040516100ce9190610933565b6100ff610142366004610633565b6102b0565b61014f6102cf565b005b6101596102e3565b6040516100ce91906106ea565b6100c16102f2565b6100ea61017c3660046106c1565b610301565b6100ff61018f366004610654565b610315565b61014f6101a2366004610633565b610340565b6060600180546101b690610970565b80601f01602080910402602001604051908101604052809291908181526020018280546101e290610970565b801561022f5780601f106102045761010080835404028352916020019161022f565b820191906000526020600020905b81548152906001019060200180831161021257829003601f168201915b5050505050905090565b6000610246338484610383565b50600192915050565b60045490565b6000610262848484610437565b6001600160a01b03841660009081526007602090815260408083203380855292529091205461029d918691610298908690610959565b610383565b5060019392505050565b60035460ff1690565b6001600160a01b0381166000908152600660205260409020545b919050565b6102d761057a565b6102e160006105b9565b565b6000546001600160a01b031690565b6060600280546101b690610970565b600061024661030e610609565b8484610437565b6001600160a01b03918216600090815260076020908152604080832093909416825291909152205490565b61034861057a565b6001600160a01b0381166103775760405162461bcd60e51b815260040161036e90610793565b60405180910390fd5b610380816105b9565b50565b6001600160a01b0383166103a95760405162461bcd60e51b815260040161036e90610807565b6001600160a01b0382166103cf5760405162461bcd60e51b815260040161036e9061075c565b6001600160a01b0380841660008181526007602090815260408083209487168084529490915290819020849055517f8c5be1e5ebec7d5bd14f71427d1e84f3dd0314c0f7b2291e5b200ac8c7c3b9259061042a90859061092a565b60405180910390a3505050565b6001600160a01b03831661045d5760405162461bcd60e51b815260040161036e906108f3565b6001600160a01b0382166104835760405162461bcd60e51b815260040161036e906108bc565b600081116104a35760405162461bcd60e51b815260040161036e90610873565b6001600160a01b0383166000908152600660205260409020548111156104db5760405162461bcd60e51b815260040161036e906107d9565b6001600160a01b03831660009081526006602052604081208054839290610503908490610959565b90915550506001600160a01b03821660009081526006602052604081208054839290610530908490610941565b92505081905550816001600160a01b0316836001600160a01b03167fddf252ad1be2c89b69c2b068fc378daa952ba7f163c4a11628f55a4df523b3ef8360405161042a919061092a565b610582610618565b6001600160a01b03166105936102e3565b6001600160a01b0316146102e15760405162461bcd60e51b815260040161036e9061083e565b600080546001600160a01b038381166001600160a01b0319831681178455604051919092169283917f8be0079c531659141344cd1fd0a4f28419497f9722a3daafe3b4186f6b6457e09190a35050565b6005546001600160a01b031690565b3390565b80356001600160a01b03811681146102ca57600080fd5b600060208284031215610644578081fd5b61064d8261061c565b9392505050565b60008060408385031215610666578081fd5b61066f8361061c565b915061067d6020840161061c565b90509250929050565b60008060006060848603121561069a578081fd5b6106a38461061c565b92506106b16020850161061c565b9150604084013590509250925092565b600080604083850312156106d3578182fd5b6106dc8361061c565b946020939093013593505050565b6001600160a01b0391909116815260200190565b901515815260200190565b6000602080835283518082850152825b8181101561073557858101830151858201604001528201610719565b818111156107465783604083870101525b50601f01601f1916929092016040019392505050565b6020808252601b908201527f417070726f766520746f20746865207a65726f20616464726573730000000000604082015260600190565b60208082526026908201527f4f776e61626c653a206e6577206f776e657220697320746865207a65726f206160408201526564647265737360d01b606082015260800190565b602080825260149082015273496e73756666696369656e742062616c616e636560601b604082015260600190565b6020808252601d908201527f417070726f76652066726f6d20746865207a65726f2061646472657373000000604082015260600190565b6020808252818101527f4f776e61626c653a2063616c6c6572206973206e6f7420746865206f776e6572604082015260600190565b60208082526029908201527f5472616e7366657220616d6f756e74206d7573742062652067726561746572206040820152687468616e207a65726f60b81b606082015260800190565b6020808252601c908201527f5472616e7366657220746f20746865207a65726f206164647265737300000000604082015260600190565b6020808252601e908201527f5472616e736665722066726f6d20746865207a65726f20616464726573730000604082015260600190565b90815260200190565b60ff91909116815260200190565b60008219821115610954576109546109ab565b500190565b60008282101561096b5761096b6109ab565b500390565b60028104600182168061098457607f821691505b602082108114156109a557634e487b7160e01b600052602260045260246000fd5b50919050565b634e487b7160e01b600052601160045260246000fdfea2646970667358221220694b27991c377f25d9fa8fe34d528b2c26131afdcf48f2016a78c15ebd88c65664736f6c63430008000033",
  "immutableReferences": {},
  "source": "// SPDX-License-Identifier: MIT\r\npragma solidity ^0.8.0;\r\n\r\nimport \"@openzeppelin/contracts/token/ERC20/IERC20.sol\";\r\nimport \"@openzeppelin/contracts/access/Ownable.sol\";\r\n\r\ncontract TestMusheeToken is IERC20, Ownable {\r\n    string private _name = \"TestMushee\";\r\n    string private _symbol = \"tMSH\";\r\n    uint8 private _decimals = 18;\r\n    uint256 private _totalSupply = 1100000 * 10 ** uint256(_decimals);\r\n    address private _owner;\r\n\r\n    mapping(address => uint256) private _balances;\r\n    mapping(address => mapping(address => uint256)) private _allowances;\r\n\r\n    constructor() {\r\n        _owner = msg.sender;\r\n        _balances[msg.sender] = _totalSupply;\r\n    }\r\n\r\n    function msgSender() internal view  returns (address payable) {\r\n        return payable(_owner);\r\n    }\r\n\r\n    function name() public view returns (string memory) {\r\n        return _name;\r\n    }\r\n\r\n    function symbol() public view returns (string memory) {\r\n        return _symbol;\r\n    }\r\n\r\n    function decimals() public view returns (uint8) {\r\n        return _decimals;\r\n    }\r\n\r\n    function totalSupply() public view override returns (uint256) {\r\n        return _totalSupply;\r\n    }\r\n\r\n    function balanceOf(address account) public view override returns (uint256) {\r\n        return _balances[account];\r\n    }\r\n\r\n   function transfer(address recipient, uint256 amount) public override returns (bool) {\r\n        _transfer(msgSender(), recipient, amount);\r\n        return true;\r\n    }\r\n\r\n    function allowance(address owner, address spender) public view override returns (uint256) {\r\n        return _allowances[owner][spender];\r\n    }\r\n\r\n    function approve(address spender, uint256 amount) public override returns (bool) {\r\n        _approve(msg.sender, spender, amount);\r\n        return true;\r\n    }\r\n\r\n    function transferFrom(address sender, address recipient, uint256 amount) public override returns (bool) {\r\n        _transfer(sender, recipient, amount);\r\n        _approve(sender, msg.sender, _allowances[sender][msg.sender] - amount);\r\n        return true;\r\n    }\r\n\r\n    function _transfer(address sender, address recipient, uint256 amount) internal {\r\n        require(sender != address(0), \"Transfer from the zero address\");\r\n        require(recipient != address(0), \"Transfer to the zero address\");\r\n        require(amount > 0, \"Transfer amount must be greater than zero\");\r\n        require(_balances[sender] >= amount, \"Insufficient balance\");\r\n\r\n        _balances[sender] -= amount;\r\n        _balances[recipient] += amount;\r\n\r\n        emit Transfer(sender, recipient, amount);\r\n    }\r\n\r\n    function _approve(address owner, address spender, uint256 amount) internal {\r\n        require(owner != address(0), \"Approve from the zero address\");\r\n        require(spender != address(0), \"Approve to the zero address\");\r\n\r\n        _allowances[owner][spender] = amount;\r\n\r\n        emit Approval(owner, spender, amount);\r\n    }\r\n}\r\n",
  "sourcePath": "C:\\Users\\NNOROMIV\\mushee\\mushee_shop\\contracts\\TestMushee.sol",
  "compiler": {
    "name": "solc",
    "version": "0.8.0+commit.c7dfd78e.Emscripten.clang"
  },
  "schemaVersion": "3.4.14",
  "updatedAt": "2023-08-14T22:37:56.750Z",
  "devdoc": {
    "kind": "dev",
    "methods": {
      "allowance(address,address)": {
        "details": "Returns the remaining number of tokens that `spender` will be allowed to spend on behalf of `owner` through {transferFrom}. This is zero by default. This value changes when {approve} or {transferFrom} are called."
      },
      "approve(address,uint256)": {
        "details": "Sets `amount` as the allowance of `spender` over the caller's tokens. Returns a boolean value indicating whether the operation succeeded. IMPORTANT: Beware that changing an allowance with this method brings the risk that someone may use both the old and the new allowance by unfortunate transaction ordering. One possible solution to mitigate this race condition is to first reduce the spender's allowance to 0 and set the desired value afterwards: https://github.com/ethereum/EIPs/issues/20#issuecomment-263524729 Emits an {Approval} event."
      },
      "balanceOf(address)": {
        "details": "Returns the amount of tokens owned by `account`."
      },
      "owner()": {
        "details": "Returns the address of the current owner."
      },
      "renounceOwnership()": {
        "details": "Leaves the contract without owner. It will not be possible to call `onlyOwner` functions. Can only be called by the current owner. NOTE: Renouncing ownership will leave the contract without an owner, thereby disabling any functionality that is only available to the owner."
      },
      "totalSupply()": {
        "details": "Returns the amount of tokens in existence."
      },
      "transferOwnership(address)": {
        "details": "Transfers ownership of the contract to a new account (`newOwner`). Can only be called by the current owner."
      }
    },
    "version": 1
  },
  "userdoc": {
    "kind": "user",
    "methods": {},
    "version": 1
  }
}