{
  "contractName": "TestFaucet",
  "abi": [
    {
      "inputs": [
        {
          "internalType": "address",
          "name": "_existingTokenAddress",
          "type": "address"
        }
      ],
      "stateMutability": "nonpayable",
      "type": "constructor"
    },
    {
      "anonymous": false,
      "inputs": [
        {
          "indexed": true,
          "internalType": "address",
          "name": "previousOwner",
          "type": "address"
        },
        {
          "indexed": true,
          "internalType": "address",
          "name": "newOwner",
          "type": "address"
        }
      ],
      "name": "OwnershipTransferred",
      "type": "event"
    },
    {
      "inputs": [],
      "name": "existingTokenContract",
      "outputs": [
        {
          "internalType": "contract TestMusheeToken",
          "name": "",
          "type": "address"
        }
      ],
      "stateMutability": "view",
      "type": "function"
    },
    {
      "inputs": [],
      "name": "faucetBalance",
      "outputs": [
        {
          "internalType": "uint256",
          "name": "",
          "type": "uint256"
        }
      ],
      "stateMutability": "view",
      "type": "function"
    },
    {
      "inputs": [
        {
          "internalType": "address",
          "name": "",
          "type": "address"
        }
      ],
      "name": "lastRequestTimestamp",
      "outputs": [
        {
          "internalType": "uint256",
          "name": "",
          "type": "uint256"
        }
      ],
      "stateMutability": "view",
      "type": "function"
    },
    {
      "inputs": [],
      "name": "owner",
      "outputs": [
        {
          "internalType": "address",
          "name": "",
          "type": "address"
        }
      ],
      "stateMutability": "view",
      "type": "function"
    },
    {
      "inputs": [],
      "name": "renounceOwnership",
      "outputs": [],
      "stateMutability": "nonpayable",
      "type": "function"
    },
    {
      "inputs": [],
      "name": "requestCooldown",
      "outputs": [
        {
          "internalType": "uint256",
          "name": "",
          "type": "uint256"
        }
      ],
      "stateMutability": "view",
      "type": "function"
    },
    {
      "inputs": [
        {
          "internalType": "address",
          "name": "newOwner",
          "type": "address"
        }
      ],
      "name": "transferOwnership",
      "outputs": [],
      "stateMutability": "nonpayable",
      "type": "function"
    },
    {
      "inputs": [],
      "name": "requestTokens",
      "outputs": [],
      "stateMutability": "nonpayable",
      "type": "function"
    },
    {
      "inputs": [
        {
          "internalType": "address",
          "name": "user",
          "type": "address"
        },
        {
          "internalType": "uint256",
          "name": "cooldown",
          "type": "uint256"
        }
      ],
      "name": "setCooldownForAddress",
      "outputs": [],
      "stateMutability": "nonpayable",
      "type": "function"
    },
    {
      "inputs": [
        {
          "internalType": "address",
          "name": "user",
          "type": "address"
        }
      ],
      "name": "getCooldownForAddress",
      "outputs": [
        {
          "internalType": "uint256",
          "name": "",
          "type": "uint256"
        }
      ],
      "stateMutability": "view",
      "type": "function"
    }
  ],
  "bytecode": "0x608060405261038460025534801561001657600080fd5b506040516107d23803806107d283398101604081905261003591610145565b6100456100406100f1565b6100f5565b600180546001600160a01b0319166001600160a01b0383811691909117918290556040516370a0823160e01b8152606492909116906370a082319061008e90339060040161018b565b60206040518083038186803b1580156100a657600080fd5b505afa1580156100ba573d6000803e3d6000fd5b505050506040513d601f19601f820116820180604052508101906100de9190610173565b6100e8919061019f565b600355506101bf565b3390565b600080546001600160a01b038381166001600160a01b0319831681178455604051919092169283917f8be0079c531659141344cd1fd0a4f28419497f9722a3daafe3b4186f6b6457e09190a35050565b600060208284031215610156578081fd5b81516001600160a01b038116811461016c578182fd5b9392505050565b600060208284031215610184578081fd5b5051919050565b6001600160a01b0391909116815260200190565b6000826101ba57634e487b7160e01b81526012600452602481fd5b500490565b610604806101ce6000396000f3fe608060405234801561001057600080fd5b506004361061009e5760003560e01c806371a762501161006657806371a76250146100fb5780638da5cb5b1461010e5780639059891914610116578063a9860c8114610129578063f2fde38b146101315761009e565b8063121dcd6b146100a35780631720f5d2146100c157806323681623146100d6578063359cf2b7146100e9578063715018a6146100f3575b600080fd5b6100ab610144565b6040516100b89190610471565b60405180910390f35b6100c9610153565b6040516100b89190610580565b6100c96100e4366004610407565b610159565b6100f1610195565b005b6100f16102b6565b6100f1610109366004610428565b6102ca565b6100ab6102fc565b6100c9610124366004610407565b61030b565b6100c961031d565b6100f161013f366004610407565b610323565b6001546001600160a01b031681565b60035481565b6002546001600160a01b038216600090815260046020526040812054909142916101839190610589565b61018d91906105a1565b90505b919050565b600254336000908152600460205260409020546101b290426105a1565b10156101d95760405162461bcd60e51b81526004016101d0906104e4565b60405180910390fd5b336000908152600460205260409020429055600354674563918244f40000908111156102175760405162461bcd60e51b81526004016101d090610550565b806003600082825461022991906105a1565b909155505060015460405163a9059cbb60e01b81526001600160a01b039091169063a9059cbb906102609033908590600401610485565b602060405180830381600087803b15801561027a57600080fd5b505af115801561028e573d6000803e3d6000fd5b505050506040513d601f19601f820116820180604052508101906102b29190610451565b5050565b6102be61035d565b6102c8600061039c565b565b6102d261035d565b6102dc81426105a1565b6001600160a01b0390921660009081526004602052604090209190915550565b6000546001600160a01b031690565b60046020526000908152604090205481565b60025481565b61032b61035d565b6001600160a01b0381166103515760405162461bcd60e51b81526004016101d09061049e565b61035a8161039c565b50565b6103656103ec565b6001600160a01b03166103766102fc565b6001600160a01b0316146102c85760405162461bcd60e51b81526004016101d09061051b565b600080546001600160a01b038381166001600160a01b0319831681178455604051919092169283917f8be0079c531659141344cd1fd0a4f28419497f9722a3daafe3b4186f6b6457e09190a35050565b3390565b80356001600160a01b038116811461019057600080fd5b600060208284031215610418578081fd5b610421826103f0565b9392505050565b6000806040838503121561043a578081fd5b610443836103f0565b946020939093013593505050565b600060208284031215610462578081fd5b81518015158114610421578182fd5b6001600160a01b0391909116815260200190565b6001600160a01b03929092168252602082015260400190565b60208082526026908201527f4f776e61626c653a206e6577206f776e657220697320746865207a65726f206160408201526564647265737360d01b606082015260800190565b6020808252601b908201527f436f6f6c646f776e20706572696f64206e6f7420656c61707365640000000000604082015260600190565b6020808252818101527f4f776e61626c653a2063616c6c6572206973206e6f7420746865206f776e6572604082015260600190565b6020808252601690820152754661756365742062616c616e636520746f6f206c6f7760501b604082015260600190565b90815260200190565b6000821982111561059c5761059c6105b8565b500190565b6000828210156105b3576105b36105b8565b500390565b634e487b7160e01b600052601160045260246000fdfea2646970667358221220c506638043c2a44058c4eb33c783420d6c5a2aadb624aa7fe668d1dbb50bcf9164736f6c63430008000033",
  "immutableReferences": {},
  "source": "// SPDX-License-Identifier: MIT\r\npragma solidity ^0.8.0;\r\n\r\nimport \"./TestMushee.sol\";\r\nimport \"@openzeppelin/contracts/access/Ownable.sol\";\r\n\r\ncontract TestFaucet is Ownable {\r\n    TestMusheeToken public existingTokenContract;\r\n    uint256 public requestCooldown = 15 minutes;\r\n    uint256 public faucetBalance; // Balance of the faucet address\r\n    mapping(address => uint256) public lastRequestTimestamp;\r\n    mapping(address => uint256) private _balances;\r\n\r\n    constructor(address _existingTokenAddress) {\r\n        existingTokenContract = TestMusheeToken(_existingTokenAddress);\r\n        faucetBalance = existingTokenContract.balanceOf(msg.sender) / 100; // Initial balance of the faucet\r\n    }\r\n\r\n     function requestTokens() external {\r\n        require(block.timestamp - lastRequestTimestamp[msg.sender] >= requestCooldown, \"Cooldown period not elapsed\");\r\n\r\n        lastRequestTimestamp[msg.sender] = block.timestamp;\r\n        uint256 amount = 5*10**18; // Assuming the token has the same decimals as the faucet\r\n        require(faucetBalance >= amount, \"Faucet balance too low\");\r\n\r\n        faucetBalance -= amount; // Deduct tokens from the faucet's balance\r\n        existingTokenContract.transfer(msg.sender, amount);\r\n    }\r\n\r\n    function setCooldownForAddress(address user, uint256 cooldown) external onlyOwner {\r\n        lastRequestTimestamp[user] = block.timestamp - cooldown; // Reset cooldown for the specific address\r\n    }\r\n\r\n    function getCooldownForAddress(address user) public view returns (uint256) {\r\n        return lastRequestTimestamp[user] + requestCooldown - block.timestamp;\r\n    }\r\n}\r\n",
  "sourcePath": "C:\\Users\\NNOROMIV\\mushee\\mushee_shop\\contracts\\Faucet.sol",
  "compiler": {
    "name": "solc",
    "version": "0.8.0+commit.c7dfd78e.Emscripten.clang"
  },
  "schemaVersion": "3.4.14",
  "updatedAt": "2023-08-14T22:37:56.719Z",
  "devdoc": {
    "kind": "dev",
    "methods": {
      "owner()": {
        "details": "Returns the address of the current owner."
      },
      "renounceOwnership()": {
        "details": "Leaves the contract without owner. It will not be possible to call `onlyOwner` functions. Can only be called by the current owner. NOTE: Renouncing ownership will leave the contract without an owner, thereby disabling any functionality that is only available to the owner."
      },
      "transferOwnership(address)": {
        "details": "Transfers ownership of the contract to a new account (`newOwner`). Can only be called by the current owner."
      }
    },
    "version": 1
  },
  "userdoc": {
    "kind": "user",
    "methods": {},
    "version": 1
  }
}